{
  "contractName": "AccessControlledAggregator",
  "abi": [
    {
      "inputs": [
        {
          "internalType": "address",
          "name": "_link",
          "type": "address"
        },
        {
          "internalType": "uint128",
          "name": "_paymentAmount",
          "type": "uint128"
        },
        {
          "internalType": "uint32",
          "name": "_timeout",
          "type": "uint32"
        },
        {
          "internalType": "address",
          "name": "_validator",
          "type": "address"
        },
        {
          "internalType": "int256",
          "name": "_minSubmissionValue",
          "type": "int256"
        },
        {
          "internalType": "int256",
          "name": "_maxSubmissionValue",
          "type": "int256"
        },
        {
          "internalType": "uint8",
          "name": "_decimals",
          "type": "uint8"
        },
        {
          "internalType": "string",
          "name": "_description",
          "type": "string"
        }
      ],
      "stateMutability": "nonpayable",
      "type": "constructor"
    },
    {
      "anonymous": false,
      "inputs": [
        {
          "indexed": false,
          "internalType": "address",
          "name": "user",
          "type": "address"
        }
      ],
      "name": "AddedAccess",
      "type": "event"
    },
    {
      "anonymous": false,
      "inputs": [
        {
          "indexed": true,
          "internalType": "int256",
          "name": "current",
          "type": "int256"
        },
        {
          "indexed": true,
          "internalType": "uint256",
          "name": "roundId",
          "type": "uint256"
        },
        {
          "indexed": false,
          "internalType": "uint256",
          "name": "updatedAt",
          "type": "uint256"
        }
      ],
      "name": "AnswerUpdated",
      "type": "event"
    },
    {
      "anonymous": false,
      "inputs": [
        {
          "indexed": true,
          "internalType": "uint256",
          "name": "amount",
          "type": "uint256"
        }
      ],
      "name": "AvailableFundsUpdated",
      "type": "event"
    },
    {
      "anonymous": false,
      "inputs": [],
      "name": "CheckAccessDisabled",
      "type": "event"
    },
    {
      "anonymous": false,
      "inputs": [],
      "name": "CheckAccessEnabled",
      "type": "event"
    },
    {
      "anonymous": false,
      "inputs": [
        {
          "indexed": true,
          "internalType": "uint256",
          "name": "roundId",
          "type": "uint256"
        },
        {
          "indexed": true,
          "internalType": "address",
          "name": "startedBy",
          "type": "address"
        },
        {
          "indexed": false,
          "internalType": "uint256",
          "name": "startedAt",
          "type": "uint256"
        }
      ],
      "name": "NewRound",
      "type": "event"
    },
    {
      "anonymous": false,
      "inputs": [
        {
          "indexed": true,
          "internalType": "address",
          "name": "oracle",
          "type": "address"
        },
        {
          "indexed": false,
          "internalType": "address",
          "name": "admin",
          "type": "address"
        },
        {
          "indexed": false,
          "internalType": "address",
          "name": "newAdmin",
          "type": "address"
        }
      ],
      "name": "OracleAdminUpdateRequested",
      "type": "event"
    },
    {
      "anonymous": false,
      "inputs": [
        {
          "indexed": true,
          "internalType": "address",
          "name": "oracle",
          "type": "address"
        },
        {
          "indexed": true,
          "internalType": "address",
          "name": "newAdmin",
          "type": "address"
        }
      ],
      "name": "OracleAdminUpdated",
      "type": "event"
    },
    {
      "anonymous": false,
      "inputs": [
        {
          "indexed": true,
          "internalType": "address",
          "name": "oracle",
          "type": "address"
        },
        {
          "indexed": true,
          "internalType": "bool",
          "name": "whitelisted",
          "type": "bool"
        }
      ],
      "name": "OraclePermissionsUpdated",
      "type": "event"
    },
    {
      "anonymous": false,
      "inputs": [
        {
          "indexed": true,
          "internalType": "address",
          "name": "from",
          "type": "address"
        },
        {
          "indexed": true,
          "internalType": "address",
          "name": "to",
          "type": "address"
        }
      ],
      "name": "OwnershipTransferRequested",
      "type": "event"
    },
    {
      "anonymous": false,
      "inputs": [
        {
          "indexed": true,
          "internalType": "address",
          "name": "from",
          "type": "address"
        },
        {
          "indexed": true,
          "internalType": "address",
          "name": "to",
          "type": "address"
        }
      ],
      "name": "OwnershipTransferred",
      "type": "event"
    },
    {
      "anonymous": false,
      "inputs": [
        {
          "indexed": false,
          "internalType": "address",
          "name": "user",
          "type": "address"
        }
      ],
      "name": "RemovedAccess",
      "type": "event"
    },
    {
      "anonymous": false,
      "inputs": [
        {
          "indexed": true,
          "internalType": "address",
          "name": "requester",
          "type": "address"
        },
        {
          "indexed": false,
          "internalType": "bool",
          "name": "authorized",
          "type": "bool"
        },
        {
          "indexed": false,
          "internalType": "uint32",
          "name": "delay",
          "type": "uint32"
        }
      ],
      "name": "RequesterPermissionsSet",
      "type": "event"
    },
    {
      "anonymous": false,
      "inputs": [
        {
          "indexed": true,
          "internalType": "uint128",
          "name": "paymentAmount",
          "type": "uint128"
        },
        {
          "indexed": true,
          "internalType": "uint32",
          "name": "minSubmissionCount",
          "type": "uint32"
        },
        {
          "indexed": true,
          "internalType": "uint32",
          "name": "maxSubmissionCount",
          "type": "uint32"
        },
        {
          "indexed": false,
          "internalType": "uint32",
          "name": "restartDelay",
          "type": "uint32"
        },
        {
          "indexed": false,
          "internalType": "uint32",
          "name": "timeout",
          "type": "uint32"
        }
      ],
      "name": "RoundDetailsUpdated",
      "type": "event"
    },
    {
      "anonymous": false,
      "inputs": [
        {
          "indexed": true,
          "internalType": "int256",
          "name": "submission",
          "type": "int256"
        },
        {
          "indexed": true,
          "internalType": "uint32",
          "name": "round",
          "type": "uint32"
        },
        {
          "indexed": true,
          "internalType": "address",
          "name": "oracle",
          "type": "address"
        }
      ],
      "name": "SubmissionReceived",
      "type": "event"
    },
    {
      "anonymous": false,
      "inputs": [
        {
          "indexed": true,
          "internalType": "address",
          "name": "previous",
          "type": "address"
        },
        {
          "indexed": true,
          "internalType": "address",
          "name": "current",
          "type": "address"
        }
      ],
      "name": "ValidatorUpdated",
      "type": "event"
    },
    {
      "inputs": [
        {
          "internalType": "address",
          "name": "_oracle",
          "type": "address"
        }
      ],
      "name": "acceptAdmin",
      "outputs": [],
      "stateMutability": "nonpayable",
      "type": "function"
    },
    {
      "inputs": [],
      "name": "acceptOwnership",
      "outputs": [],
      "stateMutability": "nonpayable",
      "type": "function"
    },
    {
      "inputs": [
        {
          "internalType": "address",
          "name": "_user",
          "type": "address"
        }
      ],
      "name": "addAccess",
      "outputs": [],
      "stateMutability": "nonpayable",
      "type": "function"
    },
    {
      "inputs": [],
      "name": "allocatedFunds",
      "outputs": [
        {
          "internalType": "uint128",
          "name": "",
          "type": "uint128"
        }
      ],
      "stateMutability": "view",
      "type": "function",
      "constant": true
    },
    {
      "inputs": [],
      "name": "availableFunds",
      "outputs": [
        {
          "internalType": "uint128",
          "name": "",
          "type": "uint128"
        }
      ],
      "stateMutability": "view",
      "type": "function",
      "constant": true
    },
    {
      "inputs": [
        {
          "internalType": "address[]",
          "name": "_removed",
          "type": "address[]"
        },
        {
          "internalType": "address[]",
          "name": "_added",
          "type": "address[]"
        },
        {
          "internalType": "address[]",
          "name": "_addedAdmins",
          "type": "address[]"
        },
        {
          "internalType": "uint32",
          "name": "_minSubmissions",
          "type": "uint32"
        },
        {
          "internalType": "uint32",
          "name": "_maxSubmissions",
          "type": "uint32"
        },
        {
          "internalType": "uint32",
          "name": "_restartDelay",
          "type": "uint32"
        }
      ],
      "name": "changeOracles",
      "outputs": [],
      "stateMutability": "nonpayable",
      "type": "function"
    },
    {
      "inputs": [],
      "name": "checkEnabled",
      "outputs": [
        {
          "internalType": "bool",
          "name": "",
          "type": "bool"
        }
      ],
      "stateMutability": "view",
      "type": "function",
      "constant": true
    },
    {
      "inputs": [],
      "name": "decimals",
      "outputs": [
        {
          "internalType": "uint8",
          "name": "",
          "type": "uint8"
        }
      ],
      "stateMutability": "view",
      "type": "function",
      "constant": true
    },
    {
      "inputs": [],
      "name": "description",
      "outputs": [
        {
          "internalType": "string",
          "name": "",
          "type": "string"
        }
      ],
      "stateMutability": "view",
      "type": "function",
      "constant": true
    },
    {
      "inputs": [],
      "name": "disableAccessCheck",
      "outputs": [],
      "stateMutability": "nonpayable",
      "type": "function"
    },
    {
      "inputs": [],
      "name": "enableAccessCheck",
      "outputs": [],
      "stateMutability": "nonpayable",
      "type": "function"
    },
    {
      "inputs": [
        {
          "internalType": "address",
          "name": "_oracle",
          "type": "address"
        }
      ],
      "name": "getAdmin",
      "outputs": [
        {
          "internalType": "address",
          "name": "",
          "type": "address"
        }
      ],
      "stateMutability": "view",
      "type": "function",
      "constant": true
    },
    {
      "inputs": [],
      "name": "getOracles",
      "outputs": [
        {
          "internalType": "address[]",
          "name": "",
          "type": "address[]"
        }
      ],
      "stateMutability": "view",
      "type": "function",
      "constant": true
    },
    {
      "inputs": [
        {
          "internalType": "address",
          "name": "_user",
          "type": "address"
        },
        {
          "internalType": "bytes",
          "name": "_calldata",
          "type": "bytes"
        }
      ],
      "name": "hasAccess",
      "outputs": [
        {
          "internalType": "bool",
          "name": "",
          "type": "bool"
        }
      ],
      "stateMutability": "view",
      "type": "function",
      "constant": true
    },
    {
      "inputs": [],
      "name": "linkToken",
      "outputs": [
        {
          "internalType": "contract LinkTokenInterface",
          "name": "",
          "type": "address"
        }
      ],
      "stateMutability": "view",
      "type": "function",
      "constant": true
    },
    {
      "inputs": [],
      "name": "maxSubmissionCount",
      "outputs": [
        {
          "internalType": "uint32",
          "name": "",
          "type": "uint32"
        }
      ],
      "stateMutability": "view",
      "type": "function",
      "constant": true
    },
    {
      "inputs": [],
      "name": "maxSubmissionValue",
      "outputs": [
        {
          "internalType": "int256",
          "name": "",
          "type": "int256"
        }
      ],
      "stateMutability": "view",
      "type": "function",
      "constant": true
    },
    {
      "inputs": [],
      "name": "minSubmissionCount",
      "outputs": [
        {
          "internalType": "uint32",
          "name": "",
          "type": "uint32"
        }
      ],
      "stateMutability": "view",
      "type": "function",
      "constant": true
    },
    {
      "inputs": [],
      "name": "minSubmissionValue",
      "outputs": [
        {
          "internalType": "int256",
          "name": "",
          "type": "int256"
        }
      ],
      "stateMutability": "view",
      "type": "function",
      "constant": true
    },
    {
      "inputs": [
        {
          "internalType": "address",
          "name": "",
          "type": "address"
        },
        {
          "internalType": "uint256",
          "name": "",
          "type": "uint256"
        },
        {
          "internalType": "bytes",
          "name": "_data",
          "type": "bytes"
        }
      ],
      "name": "onTokenTransfer",
      "outputs": [],
      "stateMutability": "nonpayable",
      "type": "function"
    },
    {
      "inputs": [],
      "name": "oracleCount",
      "outputs": [
        {
          "internalType": "uint8",
          "name": "",
          "type": "uint8"
        }
      ],
      "stateMutability": "view",
      "type": "function",
      "constant": true
    },
    {
      "inputs": [
        {
          "internalType": "address",
          "name": "_oracle",
          "type": "address"
        },
        {
          "internalType": "uint32",
          "name": "_queriedRoundId",
          "type": "uint32"
        }
      ],
      "name": "oracleRoundState",
      "outputs": [
        {
          "internalType": "bool",
          "name": "_eligibleToSubmit",
          "type": "bool"
        },
        {
          "internalType": "uint32",
          "name": "_roundId",
          "type": "uint32"
        },
        {
          "internalType": "int256",
          "name": "_latestSubmission",
          "type": "int256"
        },
        {
          "internalType": "uint64",
          "name": "_startedAt",
          "type": "uint64"
        },
        {
          "internalType": "uint64",
          "name": "_timeout",
          "type": "uint64"
        },
        {
          "internalType": "uint128",
          "name": "_availableFunds",
          "type": "uint128"
        },
        {
          "internalType": "uint8",
          "name": "_oracleCount",
          "type": "uint8"
        },
        {
          "internalType": "uint128",
          "name": "_paymentAmount",
          "type": "uint128"
        }
      ],
      "stateMutability": "view",
      "type": "function",
      "constant": true
    },
    {
      "inputs": [],
      "name": "owner",
      "outputs": [
        {
          "internalType": "address",
          "name": "",
          "type": "address"
        }
      ],
      "stateMutability": "view",
      "type": "function",
      "constant": true
    },
    {
      "inputs": [],
      "name": "paymentAmount",
      "outputs": [
        {
          "internalType": "uint128",
          "name": "",
          "type": "uint128"
        }
      ],
      "stateMutability": "view",
      "type": "function",
      "constant": true
    },
    {
      "inputs": [
        {
          "internalType": "address",
          "name": "_user",
          "type": "address"
        }
      ],
      "name": "removeAccess",
      "outputs": [],
      "stateMutability": "nonpayable",
      "type": "function"
    },
    {
      "inputs": [],
      "name": "requestNewRound",
      "outputs": [
        {
          "internalType": "uint80",
          "name": "",
          "type": "uint80"
        }
      ],
      "stateMutability": "nonpayable",
      "type": "function"
    },
    {
      "inputs": [],
      "name": "restartDelay",
      "outputs": [
        {
          "internalType": "uint32",
          "name": "",
          "type": "uint32"
        }
      ],
      "stateMutability": "view",
      "type": "function",
      "constant": true
    },
    {
      "inputs": [
        {
          "internalType": "address",
          "name": "_requester",
          "type": "address"
        },
        {
          "internalType": "bool",
          "name": "_authorized",
          "type": "bool"
        },
        {
          "internalType": "uint32",
          "name": "_delay",
          "type": "uint32"
        }
      ],
      "name": "setRequesterPermissions",
      "outputs": [],
      "stateMutability": "nonpayable",
      "type": "function"
    },
    {
      "inputs": [
        {
          "internalType": "address",
          "name": "_newValidator",
          "type": "address"
        }
      ],
      "name": "setValidator",
      "outputs": [],
      "stateMutability": "nonpayable",
      "type": "function"
    },
    {
      "inputs": [
        {
          "internalType": "uint256",
          "name": "_roundId",
          "type": "uint256"
        },
        {
          "internalType": "int256",
          "name": "_submission",
          "type": "int256"
        }
      ],
      "name": "submit",
      "outputs": [],
      "stateMutability": "nonpayable",
      "type": "function"
    },
    {
      "inputs": [],
      "name": "timeout",
      "outputs": [
        {
          "internalType": "uint32",
          "name": "",
          "type": "uint32"
        }
      ],
      "stateMutability": "view",
      "type": "function",
      "constant": true
    },
    {
      "inputs": [
        {
          "internalType": "address",
          "name": "_oracle",
          "type": "address"
        },
        {
          "internalType": "address",
          "name": "_newAdmin",
          "type": "address"
        }
      ],
      "name": "transferAdmin",
      "outputs": [],
      "stateMutability": "nonpayable",
      "type": "function"
    },
    {
      "inputs": [
        {
          "internalType": "address",
          "name": "_to",
          "type": "address"
        }
      ],
      "name": "transferOwnership",
      "outputs": [],
      "stateMutability": "nonpayable",
      "type": "function"
    },
    {
      "inputs": [],
      "name": "updateAvailableFunds",
      "outputs": [],
      "stateMutability": "nonpayable",
      "type": "function"
    },
    {
      "inputs": [
        {
          "internalType": "uint128",
          "name": "_paymentAmount",
          "type": "uint128"
        },
        {
          "internalType": "uint32",
          "name": "_minSubmissions",
          "type": "uint32"
        },
        {
          "internalType": "uint32",
          "name": "_maxSubmissions",
          "type": "uint32"
        },
        {
          "internalType": "uint32",
          "name": "_restartDelay",
          "type": "uint32"
        },
        {
          "internalType": "uint32",
          "name": "_timeout",
          "type": "uint32"
        }
      ],
      "name": "updateFutureRounds",
      "outputs": [],
      "stateMutability": "nonpayable",
      "type": "function"
    },
    {
      "inputs": [],
      "name": "validator",
      "outputs": [
        {
          "internalType": "contract AggregatorValidatorInterface",
          "name": "",
          "type": "address"
        }
      ],
      "stateMutability": "view",
      "type": "function",
      "constant": true
    },
    {
      "inputs": [],
      "name": "version",
      "outputs": [
        {
          "internalType": "uint256",
          "name": "",
          "type": "uint256"
        }
      ],
      "stateMutability": "view",
      "type": "function",
      "constant": true
    },
    {
      "inputs": [
        {
          "internalType": "address",
          "name": "_recipient",
          "type": "address"
        },
        {
          "internalType": "uint256",
          "name": "_amount",
          "type": "uint256"
        }
      ],
      "name": "withdrawFunds",
      "outputs": [],
      "stateMutability": "nonpayable",
      "type": "function"
    },
    {
      "inputs": [
        {
          "internalType": "address",
          "name": "_oracle",
          "type": "address"
        },
        {
          "internalType": "address",
          "name": "_recipient",
          "type": "address"
        },
        {
          "internalType": "uint256",
          "name": "_amount",
          "type": "uint256"
        }
      ],
      "name": "withdrawPayment",
      "outputs": [],
      "stateMutability": "nonpayable",
      "type": "function"
    },
    {
      "inputs": [
        {
          "internalType": "address",
          "name": "_oracle",
          "type": "address"
        }
      ],
      "name": "withdrawablePayment",
      "outputs": [
        {
          "internalType": "uint256",
          "name": "",
          "type": "uint256"
        }
      ],
      "stateMutability": "view",
      "type": "function",
      "constant": true
    },
    {
      "inputs": [
        {
          "internalType": "uint80",
          "name": "_roundId",
          "type": "uint80"
        }
      ],
      "name": "getRoundData",
      "outputs": [
        {
          "internalType": "uint80",
          "name": "roundId",
          "type": "uint80"
        },
        {
          "internalType": "int256",
          "name": "answer",
          "type": "int256"
        },
        {
          "internalType": "uint256",
          "name": "startedAt",
          "type": "uint256"
        },
        {
          "internalType": "uint256",
          "name": "updatedAt",
          "type": "uint256"
        },
        {
          "internalType": "uint80",
          "name": "answeredInRound",
          "type": "uint80"
        }
      ],
      "stateMutability": "view",
      "type": "function",
      "constant": true
    },
    {
      "inputs": [],
      "name": "latestRoundData",
      "outputs": [
        {
          "internalType": "uint80",
          "name": "roundId",
          "type": "uint80"
        },
        {
          "internalType": "int256",
          "name": "answer",
          "type": "int256"
        },
        {
          "internalType": "uint256",
          "name": "startedAt",
          "type": "uint256"
        },
        {
          "internalType": "uint256",
          "name": "updatedAt",
          "type": "uint256"
        },
        {
          "internalType": "uint80",
          "name": "answeredInRound",
          "type": "uint80"
        }
      ],
      "stateMutability": "view",
      "type": "function",
      "constant": true
    },
    {
      "inputs": [],
      "name": "latestAnswer",
      "outputs": [
        {
          "internalType": "int256",
          "name": "",
          "type": "int256"
        }
      ],
      "stateMutability": "view",
      "type": "function",
      "constant": true
    },
    {
      "inputs": [],
      "name": "latestRound",
      "outputs": [
        {
          "internalType": "uint256",
          "name": "",
          "type": "uint256"
        }
      ],
      "stateMutability": "view",
      "type": "function",
      "constant": true
    },
    {
      "inputs": [],
      "name": "latestTimestamp",
      "outputs": [
        {
          "internalType": "uint256",
          "name": "",
          "type": "uint256"
        }
      ],
      "stateMutability": "view",
      "type": "function",
      "constant": true
    },
    {
      "inputs": [
        {
          "internalType": "uint256",
          "name": "_roundId",
          "type": "uint256"
        }
      ],
      "name": "getAnswer",
      "outputs": [
        {
          "internalType": "int256",
          "name": "",
          "type": "int256"
        }
      ],
      "stateMutability": "view",
      "type": "function",
      "constant": true
    },
    {
      "inputs": [
        {
          "internalType": "uint256",
          "name": "_roundId",
          "type": "uint256"
        }
      ],
      "name": "getTimestamp",
      "outputs": [
        {
          "internalType": "uint256",
          "name": "",
          "type": "uint256"
        }
      ],
      "stateMutability": "view",
      "type": "function",
      "constant": true
    }
  ],
  "bytecode": "0x60c06040523480156200001157600080fd5b50604051620053523803806200535283398181016040526101008110156200003857600080fd5b815160208301516040808501516060860151608087015160a088015160c089015160e08a0180519651989a9799959894979396929591949391820192846401000000008211156200008857600080fd5b9083019060208201858111156200009e57600080fd5b8251640100000000811182820188101715620000b957600080fd5b82525081516020918201929091019080838360005b83811015620000e8578181015183820152602001620000ce565b50505050905090810190601f168015620001165780820380516001836020036101000a031916815260200191505b50604052505060008054336001600160a01b0319918216178255600280549091166001600160a01b038c1617905589915088908890889088908890889088906200016590889080808a62000244565b62000179856001600160e01b036200062216565b608084905260a08390526005805460ff191660ff84161790558051620001a790600690602084019062000806565b50620001c88663ffffffff1642620006ec60201b620034db1790919060201c565b6000805260096020527fec8156718a8372b1db44bb411437d0870f3e3790d4a08526d024ce1b0b668f6c80546001600160401b03929092166801000000000000000002600160401b600160801b03199092169190911790555050600e805460ff1916600117905550620008a89c50505050505050505050505050565b6000546001600160a01b03163314620002a4576040805162461bcd60e51b815260206004820152601660248201527f4f6e6c792063616c6c61626c65206279206f776e657200000000000000000000604482015290519081900360640190fd5b6000620002b96001600160e01b036200074f16565b60ff1690508463ffffffff168463ffffffff16101562000320576040805162461bcd60e51b815260206004820152601960248201527f6d6178206d75737420657175616c2f657863656564206d696e00000000000000604482015290519081900360640190fd5b8363ffffffff168163ffffffff16101562000382576040805162461bcd60e51b815260206004820152601760248201527f6d61782063616e6e6f742065786365656420746f74616c000000000000000000604482015290519081900360640190fd5b63ffffffff81161580620003a157508263ffffffff168163ffffffff16115b620003f3576040805162461bcd60e51b815260206004820152601960248201527f64656c61792063616e6e6f742065786365656420746f74616c00000000000000604482015290519081900360640190fd5b620004106001600160801b0387166001600160e01b036200075616565b600d546001600160801b0316101562000470576040805162461bcd60e51b815260206004820152601e60248201527f696e73756666696369656e742066756e647320666f72207061796d656e740000604482015290519081900360640190fd5b6000620004856001600160e01b036200074f16565b60ff161115620004eb5760008563ffffffff1611620004eb576040805162461bcd60e51b815260206004820152601a60248201527f6d696e206d7573742062652067726561746572207468616e2030000000000000604482015290519081900360640190fd5b85600460006101000a8154816001600160801b0302191690836001600160801b0316021790555084600460146101000a81548163ffffffff021916908363ffffffff16021790555083600460106101000a81548163ffffffff021916908363ffffffff16021790555082600460186101000a81548163ffffffff021916908363ffffffff160217905550816004601c6101000a81548163ffffffff021916908363ffffffff1602179055508363ffffffff168563ffffffff16600460009054906101000a90046001600160801b03166001600160801b03167f56800c9d1ed723511246614d15e58cfcde15b6a33c245b5c961b689c1890fd8f8686604051808363ffffffff1663ffffffff1681526020018263ffffffff1663ffffffff1681526020019250505060405180910390a4505050505050565b6000546001600160a01b0316331462000682576040805162461bcd60e51b815260206004820152601660248201527f4f6e6c792063616c6c61626c65206279206f776e657200000000000000000000604482015290519081900360640190fd5b6003546001600160a01b039081169082168114620006e857600380546001600160a01b0319166001600160a01b0384811691821790925560405190918316907fcfac5dc75b8d9a7e074162f59d9adcd33da59f0fe8dfb21580db298fc0fdad0d90600090a35b5050565b60008282111562000744576040805162461bcd60e51b815260206004820152601e60248201527f536166654d6174683a207375627472616374696f6e206f766572666c6f770000604482015290519081900360640190fd5b508082035b92915050565b600c545b90565b60006200074960026200078d620007756001600160e01b036200074f16565b60ff1685620007a160201b62003f6a1790919060201c565b620007a160201b62003f6a1790919060201c565b600082620007b25750600062000749565b82820282848281620007c057fe5b0414620007ff5760405162461bcd60e51b8152600401808060200182810382526021815260200180620053316021913960400191505060405180910390fd5b9392505050565b828054600181600116156101000203166002900490600052602060002090601f016020900481019282601f106200084957805160ff191683800117855562000879565b8280016001018555821562000879579182015b82811115620008795782518255916020019190600101906200085c565b50620008879291506200088b565b5090565b6200075391905b8082111562000887576000815560010162000892565b60805160a051614a5b620008d660003980610c805280610f04525080610c0b5280611c045250614a5b6000f3fe608060405234801561001057600080fd5b50600436106102955760003560e01c806370dea79a11610167578063a4c0ed36116100ce578063d4cc54e411610087578063d4cc54e414610a25578063dc7f012414610a2d578063e2e4031714610a35578063e9ee6eeb14610a5b578063f2fde38b14610a89578063feaf968c14610aaf57610295565b8063a4c0ed361461092c578063b5ab58dc146109af578063b633620c146109cc578063c1075329146109e9578063c35905c614610a15578063c937450014610a1d57610295565b80638823da6c116101205780638823da6c146107b757806388aa80e7146107dd5780638da5cb5b1461086f57806398e5b12a146108775780639a6fc8f51461089e578063a118f2491461090657610295565b806370dea79a146107125780637284e4161461071a57806379ba5097146107975780637c2b0b211461079f5780638038e4a1146107a75780638205bf6a146107af57610295565b806340884c521161020b57806358609e44116101c457806358609e44146105e6578063613d8fcc146105ee578063628806ef146105f657806364efb22b1461061c578063668a0f02146106425780636b14daf81461064a57610295565b806340884c521461054a57806346fcff4c146105a25780634f8fc3b5146105c657806350d25bcd146105ce57806354fd4d50146105d657806357970e93146105de57610295565b8063313ce5671161025d578063313ce56714610341578063357ebb021461035f57806338aa4c72146103805780633969c20f146103ca5780633a5381b5146104f05780633d3d77141461051457610295565b80630a7569831461029a5780631327d3d8146102a4578063202ee0ed146102ca57806320ed0275146102ed57806323ca290314610327575b600080fd5b6102a2610ab7565b005b6102a2600480360360208110156102ba57600080fd5b50356001600160a01b0316610b45565b6102a2600480360360408110156102e057600080fd5b5080359060200135610bfb565b6102a26004803603606081101561030357600080fd5b5080356001600160a01b03169060208101351515906040013563ffffffff16610dcd565b61032f610f02565b60408051918252519081900360200190f35b610349610f26565b6040805160ff9092168252519081900360200190f35b610367610f2f565b6040805163ffffffff9092168252519081900360200190f35b6102a2600480360360a081101561039657600080fd5b506001600160801b038135169063ffffffff6020820135811691604081013582169160608201358116916080013516610f42565b6102a2600480360360c08110156103e057600080fd5b810190602081018135600160201b8111156103fa57600080fd5b82018360208201111561040c57600080fd5b803590602001918460208302840111600160201b8311171561042d57600080fd5b919390929091602081019035600160201b81111561044a57600080fd5b82018360208201111561045c57600080fd5b803590602001918460208302840111600160201b8311171561047d57600080fd5b919390929091602081019035600160201b81111561049a57600080fd5b8201836020820111156104ac57600080fd5b803590602001918460208302840111600160201b831117156104cd57600080fd5b919350915063ffffffff81358116916020810135821691604090910135166112e5565b6104f86114ad565b604080516001600160a01b039092168252519081900360200190f35b6102a26004803603606081101561052a57600080fd5b506001600160a01b038135811691602081013590911690604001356114bc565b6105526116af565b60408051602080825283518183015283519192839290830191858101910280838360005b8381101561058e578181015183820152602001610576565b505050509050019250505060405180910390f35b6105aa611712565b604080516001600160801b039092168252519081900360200190f35b6102a2611721565b61032f611838565b61032f6118c5565b6104f86118ca565b6103676118d9565b6103496118ec565b6102a26004803603602081101561060c57600080fd5b50356001600160a01b03166118f2565b6104f86004803603602081101561063257600080fd5b50356001600160a01b03166119d8565b61032f611a02565b6106fe6004803603604081101561066057600080fd5b6001600160a01b038235169190810190604081016020820135600160201b81111561068a57600080fd5b82018360208201111561069c57600080fd5b803590602001918460018302840111600160201b831117156106bd57600080fd5b91908080601f016020809104026020016040519081016040528093929190818152602001838380828437600092019190915250929550611a8a945050505050565b604080519115158252519081900360200190f35b610367611ab2565b610722611ac5565b6040805160208082528351818301528351919283929083019185019080838360005b8381101561075c578181015183820152602001610744565b50505050905090810190601f1680156107895780820380516001836020036101000a031916815260200191505b509250505060405180910390f35b6102a2611b53565b61032f611c02565b6102a2611c26565b61032f611cb5565b6102a2600480360360208110156107cd57600080fd5b50356001600160a01b0316611d3d565b61080f600480360360408110156107f357600080fd5b5080356001600160a01b0316906020013563ffffffff16611e04565b60408051981515895263ffffffff9097166020890152878701959095526001600160401b0393841660608801529190921660808601526001600160801b0391821660a086015260ff1660c08501521660e083015251908190036101000190f35b6104f8611f64565b61087f611f73565b6040805169ffffffffffffffffffff9092168252519081900360200190f35b6108c7600480360360208110156108b457600080fd5b503569ffffffffffffffffffff16612092565b6040805169ffffffffffffffffffff96871681526020810195909552848101939093526060840191909152909216608082015290519081900360a00190f35b6102a26004803603602081101561091c57600080fd5b50356001600160a01b0316612133565b6102a26004803603606081101561094257600080fd5b6001600160a01b0382351691602081013591810190606081016040820135600160201b81111561097157600080fd5b82018360208201111561098357600080fd5b803590602001918460018302840111600160201b831117156109a457600080fd5b5090925090506121fb565b61032f600480360360208110156109c557600080fd5b503561225c565b61032f600480360360208110156109e257600080fd5b50356122e5565b6102a2600480360360408110156109ff57600080fd5b506001600160a01b03813516906020013561236e565b6105aa612510565b61036761251f565b6105aa612532565b6106fe612548565b61032f60048036036020811015610a4b57600080fd5b50356001600160a01b0316612551565b6102a260048036036040811015610a7157600080fd5b506001600160a01b0381358116916020013516612575565b6102a260048036036020811015610a9f57600080fd5b50356001600160a01b0316612658565b6108c76126f6565b6000546001600160a01b03163314610b04576040805162461bcd60e51b81526020600482015260166024820152600080516020614a06833981519152604482015290519081900360640190fd5b600e5460ff1615610b4357600e805460ff191690556040517f3be8a977a014527b50ae38adda80b56911c267328965c98ddc385d248f53963890600090a15b565b6000546001600160a01b03163314610b92576040805162461bcd60e51b81526020600482015260166024820152600080516020614a06833981519152604482015290519081900360640190fd5b6003546001600160a01b039081169082168114610bf757600380546001600160a01b0319166001600160a01b0384811691821790925560405190918316907fcfac5dc75b8d9a7e074162f59d9adcd33da59f0fe8dfb21580db298fc0fdad0d90600090a35b5050565b6060610c073384612795565b90507f0000000000000000000000000000000000000000000000000000000000000000821215610c7e576040805162461bcd60e51b815260206004820152601e60248201527f76616c75652062656c6f77206d696e5375626d697373696f6e56616c75650000604482015290519081900360640190fd5b7f0000000000000000000000000000000000000000000000000000000000000000821315610cf3576040805162461bcd60e51b815260206004820152601e60248201527f76616c75652061626f7665206d61785375626d697373696f6e56616c75650000604482015290519081900360640190fd5b8051819015610d805760405162461bcd60e51b81526004018080602001828103825283818151815260200191508051906020019080838360005b83811015610d45578181015183820152602001610d2d565b50505050905090810190601f168015610d725780820380516001836020036101000a031916815260200191505b509250505060405180910390fd5b50610d8a83612a37565b610d948284612acc565b600080610da085612ba5565b91509150610dad85612cfd565b610db685612e40565b8115610dc657610dc68582612e9f565b5050505050565b6000546001600160a01b03163314610e1a576040805162461bcd60e51b81526020600482015260166024820152600080516020614a06833981519152604482015290519081900360640190fd5b6001600160a01b0383166000908152600b602052604090205460ff1615158215151415610e4657610efd565b8115610e89576001600160a01b0383166000908152600b60205260409020805460ff19168315151764ffffffff00191661010063ffffffff841602179055610eb2565b6001600160a01b0383166000908152600b60205260409020805468ffffffffffffffffff191690555b60408051831515815263ffffffff8316602082015281516001600160a01b038616927fc3df5a754e002718f2e10804b99e6605e7c701d95cec9552c7680ca2b6f2820a928290030190a25b505050565b7f000000000000000000000000000000000000000000000000000000000000000081565b60055460ff1681565b600454600160c01b900463ffffffff1681565b6000546001600160a01b03163314610f8f576040805162461bcd60e51b81526020600482015260166024820152600080516020614a06833981519152604482015290519081900360640190fd5b6000610f996118ec565b60ff1690508463ffffffff168463ffffffff161015610fff576040805162461bcd60e51b815260206004820152601960248201527f6d6178206d75737420657175616c2f657863656564206d696e00000000000000604482015290519081900360640190fd5b8363ffffffff168163ffffffff161015611060576040805162461bcd60e51b815260206004820152601760248201527f6d61782063616e6e6f742065786365656420746f74616c000000000000000000604482015290519081900360640190fd5b63ffffffff8116158061107e57508263ffffffff168163ffffffff16115b6110cf576040805162461bcd60e51b815260206004820152601960248201527f64656c61792063616e6e6f742065786365656420746f74616c00000000000000604482015290519081900360640190fd5b6110e1866001600160801b0316612f98565b600d546001600160801b03161015611140576040805162461bcd60e51b815260206004820152601e60248201527f696e73756666696369656e742066756e647320666f72207061796d656e740000604482015290519081900360640190fd5b600061114a6118ec565b60ff1611156111ae5760008563ffffffff16116111ae576040805162461bcd60e51b815260206004820152601a60248201527f6d696e206d7573742062652067726561746572207468616e2030000000000000604482015290519081900360640190fd5b85600460006101000a8154816001600160801b0302191690836001600160801b0316021790555084600460146101000a81548163ffffffff021916908363ffffffff16021790555083600460106101000a81548163ffffffff021916908363ffffffff16021790555082600460186101000a81548163ffffffff021916908363ffffffff160217905550816004601c6101000a81548163ffffffff021916908363ffffffff1602179055508363ffffffff168563ffffffff16600460009054906101000a90046001600160801b03166001600160801b03167f56800c9d1ed723511246614d15e58cfcde15b6a33c245b5c961b689c1890fd8f8686604051808363ffffffff1663ffffffff1681526020018263ffffffff1663ffffffff1681526020019250505060405180910390a4505050505050565b6000546001600160a01b03163314611332576040805162461bcd60e51b81526020600482015260166024820152600080516020614a06833981519152604482015290519081900360640190fd5b60005b88811015611369576113618a8a8381811061134c57fe5b905060200201356001600160a01b0316612fc6565b600101611335565b508584146113be576040805162461bcd60e51b815260206004820181905260248201527f6e6565642073616d65206f7261636c6520616e642061646d696e20636f756e74604482015290519081900360640190fd5b604d6113db876113cc6118ec565b60ff169063ffffffff61319416565b1115611424576040805162461bcd60e51b81526020600482015260136024820152721b585e081bdc9858db195cc8185b1b1bddd959606a1b604482015290519081900360640190fd5b60005b868110156114775761146f88888381811061143e57fe5b905060200201356001600160a01b031687878481811061145a57fe5b905060200201356001600160a01b03166131dc565b600101611427565b506004546114a2906001600160801b03811690859085908590600160e01b900463ffffffff16610f42565b505050505050505050565b6003546001600160a01b031681565b6001600160a01b0383811660009081526008602052604090206002015462010000900416331461152c576040805162461bcd60e51b815260206004820152601660248201527537b7363c9031b0b63630b1363290313c9030b236b4b760511b604482015290519081900360640190fd5b6001600160a01b03831660009081526008602052604090205481906001600160801b039081169082168110156115a9576040805162461bcd60e51b815260206004820152601f60248201527f696e73756666696369656e7420776974686472617761626c652066756e647300604482015290519081900360640190fd5b6115c26001600160801b0382168363ffffffff61346c16565b6001600160a01b038616600090815260086020526040902080546001600160801b0319166001600160801b03928316179055600d5461160a91600160801b909104168361346c565b600d80546001600160801b03928316600160801b029083161790556002546040805163a9059cbb60e01b81526001600160a01b03888116600483015293861660248201529051929091169163a9059cbb916044808201926020929091908290030181600087803b15801561167d57600080fd5b505af1158015611691573d6000803e3d6000fd5b505050506040513d60208110156116a757600080fd5b5051610dc657fe5b6060600c80548060200260200160405190810160405280929190818152602001828054801561170757602002820191906000526020600020905b81546001600160a01b031681526001909101906020018083116116e9575b505050505090505b90565b600d546001600160801b031690565b6117296148b4565b50604080518082018252600d546001600160801b038082168352600160801b90910416602080830182905260025484516370a0823160e01b8152306004820152945193946000946117da94936001600160a01b03909316926370a082319260248082019391829003018186803b1580156117a257600080fd5b505afa1580156117b6573d6000803e3d6000fd5b505050506040513d60208110156117cc57600080fd5b50519063ffffffff6134db16565b82519091506001600160801b03168114610bf757600d80546001600160801b0319166001600160801b03831617905560405181907ffe25c73e3b9089fac37d55c4c7efcba6f04af04cebd2fc4d6d7dbb07e1e5234f90600090a25050565b600061187b336000368080601f016020809104026020016040519081016040528093929190818152602001838380828437600092019190915250611a8a92505050565b6118b8576040805162461bcd60e51b81526020600482015260096024820152684e6f2061636365737360b81b604482015290519081900360640190fd5b6118c0613532565b905090565b600381565b6002546001600160a01b031681565b600454600160801b900463ffffffff1681565b600c5490565b6001600160a01b03818116600090815260086020526040902060030154163314611963576040805162461bcd60e51b815260206004820152601e60248201527f6f6e6c792063616c6c61626c652062792070656e64696e672061646d696e0000604482015290519081900360640190fd5b6001600160a01b0381166000818152600860205260408082206003810180546001600160a01b0319169055600201805462010000600160b01b031916336201000081029190911790915590519092917f0c5055390645c15a4be9a21b3f8d019153dcb4a0c125685da6eb84048e2fe90491a350565b6001600160a01b03808216600090815260086020526040902060020154620100009004165b919050565b6000611a45336000368080601f016020809104026020016040519081016040528093929190818152602001838380828437600092019190915250611a8a92505050565b611a82576040805162461bcd60e51b81526020600482015260096024820152684e6f2061636365737360b81b604482015290519081900360640190fd5b6118c0613554565b6000611a968383613567565b80611aa957506001600160a01b03831632145b90505b92915050565b600454600160e01b900463ffffffff1681565b6006805460408051602060026001851615610100026000190190941693909304601f81018490048402820184019092528181529291830182828015611b4b5780601f10611b2057610100808354040283529160200191611b4b565b820191906000526020600020905b815481529060010190602001808311611b2e57829003601f168201915b505050505081565b6001546001600160a01b03163314611bab576040805162461bcd60e51b815260206004820152601660248201527526bab9ba10313290383937b837b9b2b21037bbb732b960511b604482015290519081900360640190fd5b60008054336001600160a01b0319808316821784556001805490911690556040516001600160a01b0390921692909183917f8be0079c531659141344cd1fd0a4f28419497f9722a3daafe3b4186f6b6457e091a350565b7f000000000000000000000000000000000000000000000000000000000000000081565b6000546001600160a01b03163314611c73576040805162461bcd60e51b81526020600482015260166024820152600080516020614a06833981519152604482015290519081900360640190fd5b600e5460ff16610b4357600e805460ff191660011790556040517faebf329500988c6488a0074e5a0a9ff304561fc5c6fc877aeb1d59c8282c348090600090a1565b6000611cf8336000368080601f016020809104026020016040519081016040528093929190818152602001838380828437600092019190915250611a8a92505050565b611d35576040805162461bcd60e51b81526020600482015260096024820152684e6f2061636365737360b81b604482015290519081900360640190fd5b6118c0613597565b6000546001600160a01b03163314611d8a576040805162461bcd60e51b81526020600482015260166024820152600080516020614a06833981519152604482015290519081900360640190fd5b6001600160a01b0381166000908152600f602052604090205460ff1615611e01576001600160a01b0381166000818152600f6020908152604091829020805460ff19169055815192835290517f3d68a6fce901d20453d1a7aa06bf3950302a735948037deb182a8db66df2a0d19281900390910190a15b50565b600080808080808080333214611e5a576040805162461bcd60e51b81526020600482015260166024820152756f66662d636861696e2072656164696e67206f6e6c7960501b604482015290519081900360640190fd5b63ffffffff891615611f3d5763ffffffff89166000908152600960209081526040808320600a909252909120611e908c8c6135cc565b6001600160a01b038d1660009081526008602052604090206001908101548482015491840154600d548f936001600160401b031691600160401b900463ffffffff16906001600160801b0316611ee46118ec565b60018901546001600160401b0316611f07576004546001600160801b0316611f1d565b6001880154600160601b90046001600160801b03165b8363ffffffff169350995099509950995099509950995099505050611f57565b611f468a613621565b975097509750975097509750975097505b9295985092959890939650565b6000546001600160a01b031681565b336000908152600b602052604081205460ff16611fd7576040805162461bcd60e51b815260206004820152601860248201527f6e6f7420617574686f72697a6564207265717565737465720000000000000000604482015290519081900360640190fd5b60075463ffffffff16600081815260096020526040902060010154600160401b90046001600160401b03161515806120135750612013816137ec565b612064576040805162461bcd60e51b815260206004820152601f60248201527f7072657620726f756e64206d75737420626520737570657273656461626c6500604482015290519081900360640190fd5b600061207b63ffffffff8084169060019061387716565b9050612086816138c8565b63ffffffff1691505090565b60008060008060006120db336000368080601f016020809104026020016040519081016040528093929190818152602001838380828437600092019190915250611a8a92505050565b612118576040805162461bcd60e51b81526020600482015260096024820152684e6f2061636365737360b81b604482015290519081900360640190fd5b61212186613996565b939a9299509097509550909350915050565b6000546001600160a01b03163314612180576040805162461bcd60e51b81526020600482015260166024820152600080516020614a06833981519152604482015290519081900360640190fd5b6001600160a01b0381166000908152600f602052604090205460ff16611e01576001600160a01b0381166000818152600f6020908152604091829020805460ff19166001179055815192835290517f87286ad1f399c8e82bf0c4ef4fcdc570ea2e1e92176e5c848b6413545b885db49281900390910190a150565b801561224e576040805162461bcd60e51b815260206004820181905260248201527f7472616e7366657220646f65736e2774206163636570742063616c6c64617461604482015290519081900360640190fd5b612256611721565b50505050565b600061229f336000368080601f016020809104026020016040519081016040528093929190818152602001838380828437600092019190915250611a8a92505050565b6122dc576040805162461bcd60e51b81526020600482015260096024820152684e6f2061636365737360b81b604482015290519081900360640190fd5b611aac82613ad0565b6000612328336000368080601f016020809104026020016040519081016040528093929190818152602001838380828437600092019190915250611a8a92505050565b612365576040805162461bcd60e51b81526020600482015260096024820152684e6f2061636365737360b81b604482015290519081900360640190fd5b611aac82613b04565b6000546001600160a01b031633146123bb576040805162461bcd60e51b81526020600482015260166024820152600080516020614a06833981519152604482015290519081900360640190fd5b600d546004546001600160801b039182169183916123ea916123dd9116612f98565b839063ffffffff6134db16565b101561243d576040805162461bcd60e51b815260206004820152601a60248201527f696e73756666696369656e7420726573657276652066756e6473000000000000604482015290519081900360640190fd5b6002546040805163a9059cbb60e01b81526001600160a01b038681166004830152602482018690529151919092169163a9059cbb9160448083019260209291908290030181600087803b15801561249357600080fd5b505af11580156124a7573d6000803e3d6000fd5b505050506040513d60208110156124bd57600080fd5b5051612508576040805162461bcd60e51b81526020600482015260156024820152741d1bdad95b881d1c985b9cd9995c8819985a5b1959605a1b604482015290519081900360640190fd5b610efd611721565b6004546001600160801b031681565b600454600160a01b900463ffffffff1681565b600d54600160801b90046001600160801b031690565b600e5460ff1681565b6001600160a01b03166000908152600860205260409020546001600160801b031690565b6001600160a01b038281166000908152600860205260409020600201546201000090041633146125e5576040805162461bcd60e51b815260206004820152601660248201527537b7363c9031b0b63630b1363290313c9030b236b4b760511b604482015290519081900360640190fd5b6001600160a01b0382811660008181526008602090815260409182902060030180546001600160a01b0319169486169485179055815133815290810193909352805191927fb79bf2e89c2d70dde91d2991fb1ea69b7e478061ad7c04ed5b02b96bc52b8104929081900390910190a25050565b6000546001600160a01b031633146126a5576040805162461bcd60e51b81526020600482015260166024820152600080516020614a06833981519152604482015290519081900360640190fd5b600180546001600160a01b0319166001600160a01b0383811691821790925560008054604051929316917fed8889f560326eb138920d842192f0eb3dd22b4f139c87a2c57538e05bae12789190a350565b600080600080600061273f336000368080601f016020809104026020016040519081016040528093929190818152602001838380828437600092019190915250611a8a92505050565b61277c576040805162461bcd60e51b81526020600482015260096024820152684e6f2061636365737360b81b604482015290519081900360640190fd5b612784613b43565b945094509450945094509091929394565b6001600160a01b03821660009081526008602052604090205460075460609163ffffffff600160801b90910481169116816127fe57604051806040016040528060128152602001716e6f7420656e61626c6564206f7261636c6560701b81525092505050611aac565b8363ffffffff168263ffffffff16111561284a57604051806040016040528060168152602001756e6f742079657420656e61626c6564206f7261636c6560501b81525092505050611aac565b6001600160a01b03851660009081526008602052604090205463ffffffff808616600160a01b9092041610156128b9576040518060400160405280601881526020017f6e6f206c6f6e67657220616c6c6f776564206f7261636c65000000000000000081525092505050611aac565b6001600160a01b03851660009081526008602052604090205463ffffffff808616600160c01b9092041610612927576040518060400160405280602081526020017f63616e6e6f74207265706f7274206f6e2070726576696f757320726f756e647381525092505050611aac565b8063ffffffff168463ffffffff1614158015612963575061295363ffffffff8083169060019061387716565b63ffffffff168463ffffffff1614155b801561297657506129748482613b6c565b155b156129ba576040518060400160405280601781526020017f696e76616c696420726f756e6420746f207265706f727400000000000000000081525092505050611aac565b8363ffffffff166001141580156129eb57506129e96129e463ffffffff80871690600190613bcc16565b613c2f565b155b15612a2f576040518060400160405280601f81526020017f70726576696f757320726f756e64206e6f7420737570657273656461626c650081525092505050611aac565b505092915050565b612a4081613c69565b612a4957611e01565b3360009081526008602052604090205460045463ffffffff600160e01b909204821691600160c01b9091048116820190831611801590612a8857508015155b15612a935750611e01565b612a9c82613c9a565b50336000908152600860205260409020805463ffffffff8316600160e01b026001600160e01b0390911617905550565b612ad581613e4d565b612b26576040805162461bcd60e51b815260206004820152601f60248201527f726f756e64206e6f7420616363657074696e67207375626d697373696f6e7300604482015290519081900360640190fd5b63ffffffff81166000818152600a6020908152604080832080546001808201835591855283852001879055338085526008909352818420805463ffffffff60c01b1916600160c01b8702178155018690555190929185917f92e98423f8adac6e64d0608e519fd1cefb861498385c6dee70d58fc926ddc68c9190a45050565b63ffffffff8082166000908152600a602052604081206001810154905491928392600160201b909204161115612be057506000905080612cf8565b63ffffffff83166000908152600a602090815260408083208054825181850281018501909352808352612c4693830182828015612c3c57602002820191906000526020600020905b815481526020019060010190808311612c28575b5050505050613e6d565b63ffffffff8516600081815260096020908152604091829020848155600101805467ffffffffffffffff60401b1916600160401b426001600160401b038116919091029190911763ffffffff60801b1916600160801b8602179091556007805467ffffffff000000001916600160201b860217905582519081529151939450919284927f0559884fd3a460db3073b7fc896cc77986f16e378210ded43186175bf646fc5f928290030190a36001925090505b915091565b63ffffffff81166000908152600a6020526040902060010154600160601b90046001600160801b0316612d2e6148b4565b5060408051808201909152600d546001600160801b03808216808452600160801b909204166020830152612d68908363ffffffff61346c16565b6001600160801b0390811682526020820151612d8b91168363ffffffff613f1616565b6001600160801b0390811660208084018290528351600d8054600160801b9094029185166001600160801b03199094169390931784161790915533600090815260089091526040902054612de691168363ffffffff613f1616565b3360009081526008602052604080822080546001600160801b0319166001600160801b03948516179055835190519216917ffe25c73e3b9089fac37d55c4c7efcba6f04af04cebd2fc4d6d7dbb07e1e5234f9190a2505050565b63ffffffff8082166000908152600a602052604090206001810154905491161115612e6a57611e01565b63ffffffff81166000908152600a6020526040812090612e8a82826148cb565b5060010180546001600160e01b031916905550565b6003546001600160a01b031680612eb65750610bf7565b6000612ecd63ffffffff80861690600190613bcc16565b63ffffffff808216600090815260096020908152604080832060018101549054825163beed9b5160e01b8152600160801b90920486166004830181905260248301829052958b166044830152606482018a90529151959650939490936001600160a01b0388169363beed9b5193620186a093608480850194929391928390030190829088803b158015612f5f57600080fd5b5087f193505050508015612f8557506040513d6020811015612f8057600080fd5b505160015b612f8e57612f90565b505b505050505050565b6000611aac6002612fba612faa6118ec565b859060ff1663ffffffff613f6a16565b9063ffffffff613f6a16565b612fcf81613fc3565b613015576040805162461bcd60e51b81526020600482015260126024820152711bdc9858db19481b9bdd08195b98589b195960721b604482015290519081900360640190fd5b60075461302e9063ffffffff9081169060019061387716565b6001600160a01b0382166000908152600860205260408120805463ffffffff93909316600160a01b0263ffffffff60a01b1990931692909217909155600c61308860016130796118ec565b60ff169063ffffffff6134db16565b8154811061309257fe5b6000918252602080832091909101546001600160a01b0385811680855260089093526040808520600290810180549390941680875291862001805461ffff90931661ffff199384168117909155939094528154169055600c80549293509091839190839081106130fe57fe5b9060005260206000200160006101000a8154816001600160a01b0302191690836001600160a01b03160217905550600c80548061313757fe5b600082815260208120820160001990810180546001600160a01b03191690559091019091556040516001600160a01b038516907f18dd09695e4fbdae8d1a5edb11221eb04564269c29a089b9753a6535c54ba92e908390a3505050565b600082820183811015611aa9576040805162461bcd60e51b815260206004820152601b60248201526000805160206149c5833981519152604482015290519081900360640190fd5b6131e582613fc3565b15613230576040805162461bcd60e51b81526020600482015260166024820152751bdc9858db1948185b1c9958591e48195b98589b195960521b604482015290519081900360640190fd5b6001600160a01b038116613283576040805162461bcd60e51b8152602060048201526015602482015274063616e6e6f74207365742061646d696e20746f203605c1b604482015290519081900360640190fd5b6001600160a01b038281166000908152600860205260409020600201546201000090041615806132d857506001600160a01b038281166000908152600860205260409020600201546201000090048116908216145b613329576040805162461bcd60e51b815260206004820152601c60248201527f6f776e65722063616e6e6f74206f76657277726974652061646d696e00000000604482015290519081900360640190fd5b61333282613fee565b6001600160a01b03808416600081815260086020526040808220805463ffffffff60a01b1963ffffffff97909716600160801b0263ffffffff60801b19909116179590951663ffffffff60a01b178555600c80546002909601805461ffff90971661ffff19909716969096178655805460018181019092557fdf6966c971051c3d54ec59162606531493a51404a002842f56009d7e5cf4a8c70180546001600160a01b031916851790558383528554948716620100000262010000600160b01b0319909516949094179094559251919290917f18dd09695e4fbdae8d1a5edb11221eb04564269c29a089b9753a6535c54ba92e9190a3806001600160a01b0316826001600160a01b03167f0c5055390645c15a4be9a21b3f8d019153dcb4a0c125685da6eb84048e2fe90460405160405180910390a35050565b6000826001600160801b0316826001600160801b031611156134d5576040805162461bcd60e51b815260206004820152601e60248201527f536166654d6174683a207375627472616374696f6e206f766572666c6f770000604482015290519081900360640190fd5b50900390565b6000828211156134d5576040805162461bcd60e51b815260206004820152601e60248201527f536166654d6174683a207375627472616374696f6e206f766572666c6f770000604482015290519081900360640190fd5b600754600160201b900463ffffffff1660009081526009602052604090205490565b600754600160201b900463ffffffff1690565b6001600160a01b0382166000908152600f602052604081205460ff1680611aa9575050600e5460ff161592915050565b600754600160201b900463ffffffff16600090815260096020526040902060010154600160401b90046001600160401b031690565b63ffffffff81166000908152600960205260408120600101546001600160401b031615613617576135fc82613e4d565b8015613610575061360d8383612795565b51155b9050611aac565b6135fc8383614058565b6001600160a01b0381166000908152600860205260408120600754815483928392839283928392839283927fec8156718a8372b1db44bb411437d0870f3e3790d4a08526d024ce1b0b668f6b929091849163ffffffff908116600160c01b90920416148061369e575060075461369c9063ffffffff16613e4d565b155b6007549091506136b39063ffffffff16613c2f565b80156136bc5750805b15613715576007546136da9063ffffffff9081169060019061387716565b63ffffffff81166000908152600960205260409020600454919b506001600160801b039091169450925061370e8c8b614058565b9a5061375f565b60075463ffffffff166000818152600960209081526040808320600a90925290912060010154919b50600160601b9091046001600160801b03169450925061375c8a613e4d565b9a505b6137698c8b612795565b51156137745760009a505b6001808301548482015463ffffffff808e166000908152600a6020526040902090930154600d548f948f94936001600160401b031692600160401b900416906001600160801b03166137c46118ec565b8a8363ffffffff1693509a509a509a509a509a509a509a509a50505050919395975091939597565b63ffffffff8082166000908152600960209081526040808320600190810154600a909352908320015491926001600160401b0390911691600160401b9004168115801590613840575060008163ffffffff16115b801561386f5750426138646001600160401b03841663ffffffff808516906140a216565b6001600160401b0316105b949350505050565b600082820163ffffffff8085169082161015611aa9576040805162461bcd60e51b815260206004820152601b60248201526000805160206149c5833981519152604482015290519081900360640190fd5b6138d181613c69565b6138da57611e01565b336000908152600b602052604090205463ffffffff6501000000000082048116916101009004811682019083161180613911575080155b613958576040805162461bcd60e51b81526020600482015260136024820152726d7573742064656c617920726571756573747360681b604482015290519081900360640190fd5b61396182613c9a565b50336000908152600b60205260409020805463ffffffff8316650100000000000268ffffffff00000000001990911617905550565b60008060008060006139a66148e9565b5063ffffffff8087166000908152600960209081526040918290208251608081018452815481526001909101546001600160401b0380821693830193909352600160401b810490921692810192909252600160801b90049091166060820181905215801590613a255750613a258769ffffffffffffffffffff166140f6565b6040518060400160405280600f81526020016e139bc819185d18481c1c995cd95b9d608a1b81525090613a995760405162461bcd60e51b8152602060048201818152835160248401528351909283926044909101919085019080838360008315610d45578181015183820152602001610d2d565b50805160208201516040830151606090930151989991986001600160401b0391821698509216955063ffffffff9091169350915050565b6000613adb826140f6565b15613afc575063ffffffff81166000908152600960205260409020546119fd565b506000919050565b6000613b0f826140f6565b15613afc575063ffffffff8116600090815260096020526040902060010154600160401b90046001600160401b03166119fd565b6000806000806000612784600760049054906101000a900463ffffffff1663ffffffff16612092565b60008163ffffffff16613b8f60018563ffffffff1661387790919063ffffffff16565b63ffffffff16148015611aa957505063ffffffff16600090815260096020526040902060010154600160401b90046001600160401b031615919050565b60008263ffffffff168263ffffffff1611156134d5576040805162461bcd60e51b815260206004820152601e60248201527f536166654d6174683a207375627472616374696f6e206f766572666c6f770000604482015290519081900360640190fd5b63ffffffff8116600090815260096020526040812060010154600160401b90046001600160401b0316151580611aac5750611aac826137ec565b600754600090613c859063ffffffff9081169060019061387716565b63ffffffff168263ffffffff16149050919050565b613cb7613cb263ffffffff80841690600190613bcc16565b614100565b6007805463ffffffff191663ffffffff8316179055613cd4614910565b5060408051600060a0820181815260c083018452825260045463ffffffff600160801b82048116602080860191909152600160a01b8304821685870152600160e01b8304821660608601526001600160801b03909216608085015285168252600a81529290208151805192938493613d4f928492019061493e565b5060208281015160019283018054604080870151606088015160809098015163ffffffff1990931663ffffffff9586161767ffffffff000000001916600160201b91861691909102176bffffffff00000000000000001916600160401b97851697909702969096176fffffffffffffffffffffffffffffffff60601b1916600160601b6001600160801b03909216919091021790558516600081815260098352849020909201805467ffffffffffffffff1916426001600160401b039081169190911791829055845191168152925133937f0109fc6f55cf40689f02fbaad7af7fe7bbac8a3d2186600afc7d3e10cac6027192908290030190a35050565b63ffffffff9081166000908152600a602052604090206001015416151590565b60008151600010613ebe576040805162461bcd60e51b81526020600482015260166024820152756c697374206d757374206e6f7420626520656d70747960501b604482015290519081900360640190fd5b81516002810460018216613efd57600080613ee38660006001870360018703876141c2565b9092509050613ef282826142a0565b9450505050506119fd565b613f0d846000600185038461430e565b925050506119fd565b60008282016001600160801b038085169082161015611aa9576040805162461bcd60e51b815260206004820152601b60248201526000805160206149c5833981519152604482015290519081900360640190fd5b600082613f7957506000611aac565b82820282848281613f8657fe5b0414611aa95760405162461bcd60e51b81526004018080602001828103825260218152602001806149e56021913960400191505060405180910390fd5b6001600160a01b031660009081526008602052604090205463ffffffff600160a01b90910481161490565b60075460009063ffffffff16801580159061403057506001600160a01b03831660009081526008602052604090205463ffffffff828116600160a01b90920416145b1561403c5790506119fd565b61405163ffffffff8083169060019061387716565b9392505050565b6001600160a01b03821660009081526008602052604081205460045463ffffffff600160e01b909204821691600160c01b90910481168201908416118061386f5750159392505050565b60008282016001600160401b038085169082161015611aa9576040805162461bcd60e51b815260206004820152601b60248201526000805160206149c5833981519152604482015290519081900360640190fd5b63ffffffff101590565b614109816137ec565b61411257611e01565b600061412963ffffffff80841690600190613bcc16565b63ffffffff8181166000908152600960209081526040808320805488861685528285209081556001918201549101805463ffffffff60801b1916600160801b928390049096169091029490941767ffffffffffffffff60401b1916600160401b426001600160401b03160217909355600a90529081209192506141ac82826148cb565b5060010180546001600160e01b03191690555050565b6000808284106141d157600080fd5b8386111580156141e15750848411155b6141ea57600080fd5b8286111580156141fa5750848311155b61420357600080fd5b600786860310156142245761421b878787878761439f565b91509150614296565b6000614231888888614772565b905080841161424257809550614290565b8481101561425557806001019650614290565b80851115801561426457508381105b61426a57fe5b6142768888838861430e565b92506142878882600101888761430e565b91506142969050565b50614203565b9550959350505050565b600080831280156142b15750600082135b806142c757506000831380156142c75750600082125b156142e75760026142d8848461484f565b816142df57fe5b059050611aac565b600060028085078185070105905061386f614308600286056002860561484f565b8261484f565b60008184111561431d57600080fd5b8282111561432a57600080fd5b82841015614381576007848403101561435657600061434c868686868761439f565b50915061386f9050565b6000614363868686614772565b90508083116143745780935061437b565b8060010194505b5061432a565b84848151811061438d57fe5b60200260200101519050949350505050565b6000806000868660010103905060008888600001815181106143bd57fe5b602002602001015190506000826001106143de576001600160ff1b036143f6565b8989600101815181106143ed57fe5b60200260200101515b905060008360021061440f576001600160ff1b03614427565b8a8a6002018151811061441e57fe5b60200260200101515b9050600084600310614440576001600160ff1b03614458565b8b8b6003018151811061444f57fe5b60200260200101515b9050600085600410614471576001600160ff1b03614489565b8c8c6004018151811061448057fe5b60200260200101515b90506000866005106144a2576001600160ff1b036144ba565b8d8d600501815181106144b157fe5b60200260200101515b90506000876006106144d3576001600160ff1b036144eb565b8e8e600601815181106144e257fe5b60200260200101515b9050858713156144f9579495945b83851315614505579293925b81831315614511579091905b8487131561451d579395935b83861315614529579294925b8083131561453357915b8486131561453f579394935b8082131561454957905b82871315614555579195915b81861315614561579094905b8085131561456b57935b82861315614577579194915b8084131561458157925b8285131561458d579193915b81841315614599579092905b828413156145a5579192915b8d8c03806145b557879a5061465b565b80600114156145c657869a5061465b565b80600214156145d757859a5061465b565b80600314156145e857849a5061465b565b80600414156145f957839a5061465b565b806005141561460a57829a5061465b565b806006141561461b57819a5061465b565b6040805162461bcd60e51b815260206004820152601060248201526f6b31206f7574206f6620626f756e647360801b604482015290519081900360640190fd5b8e8c038d8d141561467957508a995061429698505050505050505050565b806146905750969850614296975050505050505050565b80600114156146ab5750959850614296975050505050505050565b80600214156146c65750949850614296975050505050505050565b80600314156146e15750939850614296975050505050505050565b80600414156146fc5750929850614296975050505050505050565b80600514156147175750919850614296975050505050505050565b80600614156147325750909850614296975050505050505050565b6040805162461bcd60e51b815260206004820152601060248201526f6b32206f7574206f6620626f756e647360801b604482015290519081900360640190fd5b600080846002858501048151811061478657fe5b602002602001015190506001840393506001830192505b600184019350808585815181106147b057fe5b60200260200101511261479d575b600183039250808584815181106147d157fe5b6020026020010151136147be5782841015614841578483815181106147f257fe5b602002602001015185858151811061480657fe5b602002602001015186868151811061481a57fe5b6020026020010187868151811061482d57fe5b60209081029190910101919091525261484a565b82915050614051565b61479d565b60008282018183128015906148645750838112155b80614879575060008312801561487957508381125b611aa95760405162461bcd60e51b81526004018080602001828103825260218152602001806149a46021913960400191505060405180910390fd5b604080518082019091526000808252602082015290565b5080546000825590600052602060002090810190611e019190614989565b60408051608081018252600080825260208201819052918101829052606081019190915290565b6040805160a08101825260608082526000602083018190529282018390528101829052608081019190915290565b828054828255906000526020600020908101928215614979579160200282015b8281111561497957825182559160200191906001019061495e565b50614985929150614989565b5090565b61170f91905b80821115614985576000815560010161498f56fe5369676e6564536166654d6174683a206164646974696f6e206f766572666c6f77536166654d6174683a206164646974696f6e206f766572666c6f770000000000536166654d6174683a206d756c7469706c69636174696f6e206f766572666c6f774f6e6c792063616c6c61626c65206279206f776e657200000000000000000000a26469706673582212200f0abb3bd7920f5b1dce3b30c7550db5ab11e005ee77ac2155a6722f7785a2b464736f6c63430006060033536166654d6174683a206d756c7469706c69636174696f6e206f766572666c6f77",
  "immutableReferences": {
    "1136": [
      {
        "length": 32,
        "start": 3083
      },
      {
        "length": 32,
        "start": 7172
      }
    ],
    "1138": [
      {
        "length": 32,
        "start": 3200
      },
      {
        "length": 32,
        "start": 3844
      }
    ]
  },
  "source": "// SPDX-License-Identifier: MIT\npragma solidity 0.6.6;\n\nimport \"./FluxAggregator.sol\";\nimport \"./SimpleReadAccessController.sol\";\n\n/**\n * @title AccessControlled FluxAggregator contract\n * @notice This contract requires addresses to be added to a controller\n * in order to read the answers stored in the FluxAggregator contract\n */\ncontract AccessControlledAggregator is FluxAggregator, SimpleReadAccessController {\n\n  /**\n   * @notice set up the aggregator with initial configuration\n   * @param _link The address of the LINK token\n   * @param _paymentAmount The amount paid of LINK paid to each oracle per submission, in wei (units of 10 LINK)\n   * @param _timeout is the number of seconds after the previous round that are\n   * allowed to lapse before allowing an oracle to skip an unfinished round\n   * @param _validator is an optional contract address for validating\n   * external validation of answers\n   * @param _minSubmissionValue is an immutable check for a lower bound of what\n   * submission values are accepted from an oracle\n   * @param _maxSubmissionValue is an immutable check for an upper bound of what\n   * submission values are accepted from an oracle\n   * @param _decimals represents the number of decimals to offset the answer by\n   * @param _description a short description of what is being reported\n   */\n  constructor(\n    address _link,\n    uint128 _paymentAmount,\n    uint32 _timeout,\n    address _validator,\n    int256 _minSubmissionValue,\n    int256 _maxSubmissionValue,\n    uint8 _decimals,\n    string memory _description\n  ) public FluxAggregator(\n    _link,\n    _paymentAmount,\n    _timeout,\n    _validator,\n    _minSubmissionValue,\n    _maxSubmissionValue,\n    _decimals,\n    _description\n  ){}\n\n  /**\n   * @notice get data about a round. Consumers are encouraged to check\n   * that they're receiving fresh data by inspecting the updatedAt and\n   * answeredInRound return values.\n   * @param _roundId the round ID to retrieve the round data for\n   * @return roundId is the round ID for which data was retrieved\n   * @return answer is the answer for the given round\n   * @return startedAt is the timestamp when the round was started. This is 0\n   * if the round hasn't been started yet.\n   * @return updatedAt is the timestamp when the round last was updated (i.e.\n   * answer was last computed)\n   * @return answeredInRound is the round ID of the round in which the answer\n   * was computed. answeredInRound may be smaller than roundId when the round\n   * timed out. answerInRound is equal to roundId when the round didn't time out\n   * and was completed regularly.\n   * @dev overridden funcion to add the checkAccess() modifier\n   * @dev Note that for in-progress rounds (i.e. rounds that haven't yet\n   * received maxSubmissions) answer and updatedAt may change between queries.\n   */\n  function getRoundData(uint80 _roundId)\n    public\n    view\n    override\n    checkAccess()\n    returns (\n      uint80 roundId,\n      int256 answer,\n      uint256 startedAt,\n      uint256 updatedAt,\n      uint80 answeredInRound\n    )\n  {\n    return super.getRoundData(_roundId);\n  }\n\n  /**\n   * @notice get data about the latest round. Consumers are encouraged to check\n   * that they're receiving fresh data by inspecting the updatedAt and\n   * answeredInRound return values. Consumers are encouraged to\n   * use this more fully featured method over the \"legacy\" latestAnswer\n   * functions. Consumers are encouraged to check that they're receiving fresh\n   * data by inspecting the updatedAt and answeredInRound return values.\n   * @return roundId is the round ID for which data was retrieved\n   * @return answer is the answer for the given round\n   * @return startedAt is the timestamp when the round was started. This is 0\n   * if the round hasn't been started yet.\n   * @return updatedAt is the timestamp when the round last was updated (i.e.\n   * answer was last computed)\n   * @return answeredInRound is the round ID of the round in which the answer\n   * was computed. answeredInRound may be smaller than roundId when the round\n   * timed out. answerInRound is equal to roundId when the round didn't time out\n   * and was completed regularly.\n   * @dev overridden funcion to add the checkAccess() modifier\n   * @dev Note that for in-progress rounds (i.e. rounds that haven't yet\n   * received maxSubmissions) answer and updatedAt may change between queries.\n   */\n  function latestRoundData()\n    public\n    view\n    override\n    checkAccess()\n    returns (\n      uint80 roundId,\n      int256 answer,\n      uint256 startedAt,\n      uint256 updatedAt,\n      uint80 answeredInRound\n    )\n  {\n    return super.latestRoundData();\n  }\n\n  /**\n   * @notice get the most recently reported answer\n   * @dev overridden funcion to add the checkAccess() modifier\n   *\n   * @dev #[deprecated] Use latestRoundData instead. This does not error if no\n   * answer has been reached, it will simply return 0. Either wait to point to\n   * an already answered Aggregator or use the recommended latestRoundData\n   * instead which includes better verification information.\n   */\n  function latestAnswer()\n    public\n    view\n    override\n    checkAccess()\n    returns (int256)\n  {\n    return super.latestAnswer();\n  }\n\n  /**\n   * @notice get the most recently reported round ID\n   * @dev overridden funcion to add the checkAccess() modifier\n   *\n   * @dev #[deprecated] Use latestRoundData instead. This does not error if no\n   * answer has been reached, it will simply return 0. Either wait to point to\n   * an already answered Aggregator or use the recommended latestRoundData\n   * instead which includes better verification information.\n   */\n  function latestRound()\n    public\n    view\n    override\n    checkAccess()\n    returns (uint256)\n  {\n    return super.latestRound();\n  }\n\n  /**\n   * @notice get the most recent updated at timestamp\n   * @dev overridden funcion to add the checkAccess() modifier\n   *\n   * @dev #[deprecated] Use latestRoundData instead. This does not error if no\n   * answer has been reached, it will simply return 0. Either wait to point to\n   * an already answered Aggregator or use the recommended latestRoundData\n   * instead which includes better verification information.\n   */\n  function latestTimestamp()\n    public\n    view\n    override\n    checkAccess()\n    returns (uint256)\n  {\n    return super.latestTimestamp();\n  }\n\n  /**\n   * @notice get past rounds answers\n   * @dev overridden funcion to add the checkAccess() modifier\n   * @param _roundId the round number to retrieve the answer for\n   *\n   * @dev #[deprecated] Use getRoundData instead. This does not error if no\n   * answer has been reached, it will simply return 0. Either wait to point to\n   * an already answered Aggregator or use the recommended getRoundData\n   * instead which includes better verification information.\n   */\n  function getAnswer(uint256 _roundId)\n    public\n    view\n    override\n    checkAccess()\n    returns (int256)\n  {\n    return super.getAnswer(_roundId);\n  }\n\n  /**\n   * @notice get timestamp when an answer was last updated\n   * @dev overridden funcion to add the checkAccess() modifier\n   * @param _roundId the round number to retrieve the updated timestamp for\n   *\n   * @dev #[deprecated] Use getRoundData instead. This does not error if no\n   * answer has been reached, it will simply return 0. Either wait to point to\n   * an already answered Aggregator or use the recommended getRoundData\n   * instead which includes better verification information.\n   */\n  function getTimestamp(uint256 _roundId)\n    public\n    view\n    override\n    checkAccess()\n    returns (uint256)\n  {\n    return super.getTimestamp(_roundId);\n  }\n\n}\n",
  "sourcePath": "@chainlink/contracts/src/v0.6/AccessControlledAggregator.sol",
  "compiler": {
    "name": "solc",
    "version": "0.6.6+commit.6c089d02.Emscripten.clang"
  },
  "schemaVersion": "3.3.2",
  "updatedAt": "2021-02-11T21:51:43.949Z",
  "networkType": "ethereum",
  "devdoc": {
    "methods": {
      "acceptAdmin(address)": {
        "params": {
          "_oracle": "is the address of the oracle whose admin is being transferred"
        }
      },
      "acceptOwnership()": {
        "details": "Allows an ownership transfer to be completed by the recipient."
      },
      "addAccess(address)": {
        "params": {
          "_user": "The address to add"
        }
      },
      "changeOracles(address[],address[],address[],uint32,uint32,uint32)": {
        "params": {
          "_added": "is the list of addresses for the new Oracles being added",
          "_addedAdmins": "is the admin addresses for the new respective _added list. Only this address is allowed to access the respective oracle's funds",
          "_maxSubmissions": "is the new maximum submission count for each round",
          "_minSubmissions": "is the new minimum submission count for each round",
          "_removed": "is the list of addresses for the new Oracles being removed",
          "_restartDelay": "is the number of rounds an Oracle has to wait before they can initiate a round"
        }
      },
      "constructor": {
        "params": {
          "_decimals": "represents the number of decimals to offset the answer by",
          "_description": "a short description of what is being reported",
          "_link": "The address of the LINK token",
          "_maxSubmissionValue": "is an immutable check for an upper bound of what submission values are accepted from an oracle",
          "_minSubmissionValue": "is an immutable check for a lower bound of what submission values are accepted from an oracle",
          "_paymentAmount": "The amount paid of LINK paid to each oracle per submission, in wei (units of 10 LINK)",
          "_timeout": "is the number of seconds after the previous round that are allowed to lapse before allowing an oracle to skip an unfinished round",
          "_validator": "is an optional contract address for validating external validation of answers"
        }
      },
      "getAdmin(address)": {
        "params": {
          "_oracle": "is the address of the oracle whose admin is being queried"
        }
      },
      "getAnswer(uint256)": {
        "details": "overridden funcion to add the checkAccess() modifier#[deprecated] Use getRoundData instead. This does not error if no answer has been reached, it will simply return 0. Either wait to point to an already answered Aggregator or use the recommended getRoundData instead which includes better verification information.",
        "params": {
          "_roundId": "the round number to retrieve the answer for"
        }
      },
      "getRoundData(uint80)": {
        "details": "overridden funcion to add the checkAccess() modifierNote that for in-progress rounds (i.e. rounds that haven't yet received maxSubmissions) answer and updatedAt may change between queries.",
        "params": {
          "_roundId": "the round ID to retrieve the round data for"
        },
        "returns": {
          "answer": "is the answer for the given round",
          "answeredInRound": "is the round ID of the round in which the answer was computed. answeredInRound may be smaller than roundId when the round timed out. answerInRound is equal to roundId when the round didn't time out and was completed regularly.",
          "roundId": "is the round ID for which data was retrieved",
          "startedAt": "is the timestamp when the round was started. This is 0 if the round hasn't been started yet.",
          "updatedAt": "is the timestamp when the round last was updated (i.e. answer was last computed)"
        }
      },
      "getTimestamp(uint256)": {
        "details": "overridden funcion to add the checkAccess() modifier#[deprecated] Use getRoundData instead. This does not error if no answer has been reached, it will simply return 0. Either wait to point to an already answered Aggregator or use the recommended getRoundData instead which includes better verification information.",
        "params": {
          "_roundId": "the round number to retrieve the updated timestamp for"
        }
      },
      "hasAccess(address,bytes)": {
        "params": {
          "_user": "The address to query"
        }
      },
      "latestAnswer()": {
        "details": "overridden funcion to add the checkAccess() modifier#[deprecated] Use latestRoundData instead. This does not error if no answer has been reached, it will simply return 0. Either wait to point to an already answered Aggregator or use the recommended latestRoundData instead which includes better verification information."
      },
      "latestRound()": {
        "details": "overridden funcion to add the checkAccess() modifier#[deprecated] Use latestRoundData instead. This does not error if no answer has been reached, it will simply return 0. Either wait to point to an already answered Aggregator or use the recommended latestRoundData instead which includes better verification information."
      },
      "latestRoundData()": {
        "details": "overridden funcion to add the checkAccess() modifierNote that for in-progress rounds (i.e. rounds that haven't yet received maxSubmissions) answer and updatedAt may change between queries.",
        "returns": {
          "answer": "is the answer for the given round",
          "answeredInRound": "is the round ID of the round in which the answer was computed. answeredInRound may be smaller than roundId when the round timed out. answerInRound is equal to roundId when the round didn't time out and was completed regularly.",
          "roundId": "is the round ID for which data was retrieved",
          "startedAt": "is the timestamp when the round was started. This is 0 if the round hasn't been started yet.",
          "updatedAt": "is the timestamp when the round last was updated (i.e. answer was last computed)"
        }
      },
      "latestTimestamp()": {
        "details": "overridden funcion to add the checkAccess() modifier#[deprecated] Use latestRoundData instead. This does not error if no answer has been reached, it will simply return 0. Either wait to point to an already answered Aggregator or use the recommended latestRoundData instead which includes better verification information."
      },
      "onTokenTransfer(address,uint256,bytes)": {
        "params": {
          "_data": "is mostly ignored. It is checked for length, to be sure nothing strange is passed in."
        }
      },
      "oracleRoundState(address,uint32)": {
        "params": {
          "_oracle": "the address to look up information for."
        }
      },
      "removeAccess(address)": {
        "params": {
          "_user": "The address to remove"
        }
      },
      "setRequesterPermissions(address,bool,uint32)": {
        "params": {
          "_authorized": "is a boolean specifying whether they can start new rounds or not",
          "_delay": "is the number of rounds the requester must wait before starting another round",
          "_requester": "is the address to set permissions for"
        }
      },
      "setValidator(address)": {
        "params": {
          "_newValidator": "designates the address of the new validation contract."
        }
      },
      "submit(uint256,int256)": {
        "params": {
          "_roundId": "is the ID of the round this submission pertains to",
          "_submission": "is the updated data that the oracle is submitting"
        }
      },
      "transferAdmin(address,address)": {
        "params": {
          "_newAdmin": "is the new admin address",
          "_oracle": "is the address of the oracle whose admin is being transferred"
        }
      },
      "transferOwnership(address)": {
        "details": "Allows an owner to begin transferring ownership to a new address, pending."
      },
      "updateFutureRounds(uint128,uint32,uint32,uint32,uint32)": {
        "params": {
          "_maxSubmissions": "is the new maximum submission count for each round",
          "_minSubmissions": "is the new minimum submission count for each round",
          "_paymentAmount": "is the payment amount for subsequent rounds",
          "_restartDelay": "is the number of rounds an Oracle has to wait before they can initiate a round"
        }
      },
      "withdrawFunds(address,uint256)": {
        "params": {
          "_amount": "is the amount of LINK to send",
          "_recipient": "is the address to send the LINK to"
        }
      },
      "withdrawPayment(address,address,uint256)": {
        "params": {
          "_amount": "is the amount of LINK to send",
          "_oracle": "is the oracle whose LINK is transferred",
          "_recipient": "is the address to send the LINK to"
        }
      }
    },
    "title": "AccessControlled FluxAggregator contract"
  },
  "userdoc": {
    "methods": {
      "acceptAdmin(address)": {
        "notice": "accept the admin address transfer for an oracle"
      },
      "addAccess(address)": {
        "notice": "Adds an address to the access list"
      },
      "allocatedFunds()": {
        "notice": "the amount of payment yet to be withdrawn by oracles"
      },
      "availableFunds()": {
        "notice": "the amount of future funding available to oracles"
      },
      "changeOracles(address[],address[],address[],uint32,uint32,uint32)": {
        "notice": "called by the owner to remove and add new oracles as well as update the round related parameters that pertain to total oracle count"
      },
      "constructor": "set up the aggregator with initial configuration",
      "disableAccessCheck()": {
        "notice": "makes the access check unenforced"
      },
      "enableAccessCheck()": {
        "notice": "makes the access check enforced"
      },
      "getAdmin(address)": {
        "notice": "get the admin address of an oracle"
      },
      "getAnswer(uint256)": {
        "notice": "get past rounds answers"
      },
      "getOracles()": {
        "notice": "returns an array of addresses containing the oracles on contract"
      },
      "getRoundData(uint80)": {
        "notice": "get data about a round. Consumers are encouraged to check that they're receiving fresh data by inspecting the updatedAt and answeredInRound return values."
      },
      "getTimestamp(uint256)": {
        "notice": "get timestamp when an answer was last updated"
      },
      "hasAccess(address,bytes)": {
        "notice": "Returns the access of an address"
      },
      "latestAnswer()": {
        "notice": "get the most recently reported answer"
      },
      "latestRound()": {
        "notice": "get the most recently reported round ID"
      },
      "latestRoundData()": {
        "notice": "get data about the latest round. Consumers are encouraged to check that they're receiving fresh data by inspecting the updatedAt and answeredInRound return values. Consumers are encouraged to use this more fully featured method over the \"legacy\" latestAnswer functions. Consumers are encouraged to check that they're receiving fresh data by inspecting the updatedAt and answeredInRound return values."
      },
      "latestTimestamp()": {
        "notice": "get the most recent updated at timestamp"
      },
      "onTokenTransfer(address,uint256,bytes)": {
        "notice": "called through LINK's transferAndCall to update available funds in the same transaction as the funds were transferred to the aggregator"
      },
      "oracleCount()": {
        "notice": "returns the number of oracles"
      },
      "oracleRoundState(address,uint32)": {
        "notice": "a method to provide all current info oracles need. Intended only only to be callable by oracles. Not for use by contracts to read state."
      },
      "removeAccess(address)": {
        "notice": "Removes an address from the access list"
      },
      "requestNewRound()": {
        "notice": "allows non-oracles to request a new round"
      },
      "setRequesterPermissions(address,bool,uint32)": {
        "notice": "allows the owner to specify new non-oracles to start new rounds"
      },
      "setValidator(address)": {
        "notice": "method to update the address which does external data validation."
      },
      "submit(uint256,int256)": {
        "notice": "called by oracles when they have witnessed a need to update"
      },
      "transferAdmin(address,address)": {
        "notice": "transfer the admin address for an oracle"
      },
      "updateAvailableFunds()": {
        "notice": "recalculate the amount of LINK available for payouts"
      },
      "updateFutureRounds(uint128,uint32,uint32,uint32,uint32)": {
        "notice": "update the round and payment related parameters for subsequent rounds"
      },
      "withdrawFunds(address,uint256)": {
        "notice": "transfers the owner's LINK to another address"
      },
      "withdrawPayment(address,address,uint256)": {
        "notice": "transfers the oracle's LINK to another address. Can only be called by the oracle's admin."
      },
      "withdrawablePayment(address)": {
        "notice": "query the available amount of LINK for an oracle to withdraw"
      }
    },
    "notice": "This contract requires addresses to be added to a controller in order to read the answers stored in the FluxAggregator contract"
  }
}