{
  "contractName": "SimpleWriteAccessController",
  "abi": [
    {
      "inputs": [],
      "stateMutability": "nonpayable",
      "type": "constructor"
    },
    {
      "anonymous": false,
      "inputs": [
        {
          "indexed": false,
          "internalType": "address",
          "name": "user",
          "type": "address"
        }
      ],
      "name": "AddedAccess",
      "type": "event"
    },
    {
      "anonymous": false,
      "inputs": [],
      "name": "CheckAccessDisabled",
      "type": "event"
    },
    {
      "anonymous": false,
      "inputs": [],
      "name": "CheckAccessEnabled",
      "type": "event"
    },
    {
      "anonymous": false,
      "inputs": [
        {
          "indexed": true,
          "internalType": "address",
          "name": "from",
          "type": "address"
        },
        {
          "indexed": true,
          "internalType": "address",
          "name": "to",
          "type": "address"
        }
      ],
      "name": "OwnershipTransferRequested",
      "type": "event"
    },
    {
      "anonymous": false,
      "inputs": [
        {
          "indexed": true,
          "internalType": "address",
          "name": "from",
          "type": "address"
        },
        {
          "indexed": true,
          "internalType": "address",
          "name": "to",
          "type": "address"
        }
      ],
      "name": "OwnershipTransferred",
      "type": "event"
    },
    {
      "anonymous": false,
      "inputs": [
        {
          "indexed": false,
          "internalType": "address",
          "name": "user",
          "type": "address"
        }
      ],
      "name": "RemovedAccess",
      "type": "event"
    },
    {
      "inputs": [],
      "name": "acceptOwnership",
      "outputs": [],
      "stateMutability": "nonpayable",
      "type": "function"
    },
    {
      "inputs": [],
      "name": "checkEnabled",
      "outputs": [
        {
          "internalType": "bool",
          "name": "",
          "type": "bool"
        }
      ],
      "stateMutability": "view",
      "type": "function"
    },
    {
      "inputs": [],
      "name": "owner",
      "outputs": [
        {
          "internalType": "address",
          "name": "",
          "type": "address"
        }
      ],
      "stateMutability": "view",
      "type": "function"
    },
    {
      "inputs": [
        {
          "internalType": "address",
          "name": "_to",
          "type": "address"
        }
      ],
      "name": "transferOwnership",
      "outputs": [],
      "stateMutability": "nonpayable",
      "type": "function"
    },
    {
      "inputs": [
        {
          "internalType": "address",
          "name": "_user",
          "type": "address"
        },
        {
          "internalType": "bytes",
          "name": "",
          "type": "bytes"
        }
      ],
      "name": "hasAccess",
      "outputs": [
        {
          "internalType": "bool",
          "name": "",
          "type": "bool"
        }
      ],
      "stateMutability": "view",
      "type": "function"
    },
    {
      "inputs": [
        {
          "internalType": "address",
          "name": "_user",
          "type": "address"
        }
      ],
      "name": "addAccess",
      "outputs": [],
      "stateMutability": "nonpayable",
      "type": "function"
    },
    {
      "inputs": [
        {
          "internalType": "address",
          "name": "_user",
          "type": "address"
        }
      ],
      "name": "removeAccess",
      "outputs": [],
      "stateMutability": "nonpayable",
      "type": "function"
    },
    {
      "inputs": [],
      "name": "enableAccessCheck",
      "outputs": [],
      "stateMutability": "nonpayable",
      "type": "function"
    },
    {
      "inputs": [],
      "name": "disableAccessCheck",
      "outputs": [],
      "stateMutability": "nonpayable",
      "type": "function"
    }
  ],
  "bytecode": "0x608060405234801561001057600080fd5b50600080546001600160a01b031916331790556001805460ff60a01b1916600160a01b1790556106ee806100456000396000f3fe608060405234801561001057600080fd5b50600436106100935760003560e01c80638823da6c116100665780638823da6c1461017c5780638da5cb5b146101a2578063a118f249146101c6578063dc7f0124146101ec578063f2fde38b146101f457610093565b80630a756983146100985780636b14daf8146100a257806379ba50971461016c5780638038e4a114610174575b600080fd5b6100a061021a565b005b610158600480360360408110156100b857600080fd5b6001600160a01b0382351691908101906040810160208201356401000000008111156100e357600080fd5b8201836020820111156100f557600080fd5b8035906020019184600183028401116401000000008311171561011757600080fd5b91908080601f0160208091040260200160405190810160405280939291908181526020018383808284376000920191909152509295506102bd945050505050565b604080519115158252519081900360200190f35b6100a06102f5565b6100a06103a4565b6100a06004803603602081101561019257600080fd5b50356001600160a01b031661044b565b6101aa61051d565b604080516001600160a01b039092168252519081900360200190f35b6100a0600480360360208110156101dc57600080fd5b50356001600160a01b031661052c565b6101586105ff565b6100a06004803603602081101561020a57600080fd5b50356001600160a01b031661060f565b6000546001600160a01b03163314610272576040805162461bcd60e51b815260206004820152601660248201527527b7363c9031b0b63630b1363290313c9037bbb732b960511b604482015290519081900360640190fd5b600154600160a01b900460ff16156102bb576001805460ff60a01b191690556040517f3be8a977a014527b50ae38adda80b56911c267328965c98ddc385d248f53963890600090a15b565b6001600160a01b03821660009081526002602052604081205460ff16806102ee5750600154600160a01b900460ff16155b9392505050565b6001546001600160a01b0316331461034d576040805162461bcd60e51b815260206004820152601660248201527526bab9ba10313290383937b837b9b2b21037bbb732b960511b604482015290519081900360640190fd5b60008054336001600160a01b0319808316821784556001805490911690556040516001600160a01b0390921692909183917f8be0079c531659141344cd1fd0a4f28419497f9722a3daafe3b4186f6b6457e091a350565b6000546001600160a01b031633146103fc576040805162461bcd60e51b815260206004820152601660248201527527b7363c9031b0b63630b1363290313c9037bbb732b960511b604482015290519081900360640190fd5b600154600160a01b900460ff166102bb576001805460ff60a01b1916600160a01b1790556040517faebf329500988c6488a0074e5a0a9ff304561fc5c6fc877aeb1d59c8282c348090600090a1565b6000546001600160a01b031633146104a3576040805162461bcd60e51b815260206004820152601660248201527527b7363c9031b0b63630b1363290313c9037bbb732b960511b604482015290519081900360640190fd5b6001600160a01b03811660009081526002602052604090205460ff161561051a576001600160a01b038116600081815260026020908152604091829020805460ff19169055815192835290517f3d68a6fce901d20453d1a7aa06bf3950302a735948037deb182a8db66df2a0d19281900390910190a15b50565b6000546001600160a01b031681565b6000546001600160a01b03163314610584576040805162461bcd60e51b815260206004820152601660248201527527b7363c9031b0b63630b1363290313c9037bbb732b960511b604482015290519081900360640190fd5b6001600160a01b03811660009081526002602052604090205460ff1661051a576001600160a01b038116600081815260026020908152604091829020805460ff19166001179055815192835290517f87286ad1f399c8e82bf0c4ef4fcdc570ea2e1e92176e5c848b6413545b885db49281900390910190a150565b600154600160a01b900460ff1681565b6000546001600160a01b03163314610667576040805162461bcd60e51b815260206004820152601660248201527527b7363c9031b0b63630b1363290313c9037bbb732b960511b604482015290519081900360640190fd5b600180546001600160a01b0319166001600160a01b0383811691821790925560008054604051929316917fed8889f560326eb138920d842192f0eb3dd22b4f139c87a2c57538e05bae12789190a35056fea26469706673582212201a6d3ce724806c3bc80f0ee5ebfae53816069e5981fbbc19ac1373a867b6214d64736f6c63430006060033",
  "immutableReferences": {},
  "source": "// SPDX-License-Identifier: MIT\npragma solidity ^0.6.0;\n\nimport \"./Owned.sol\";\nimport \"./interfaces/AccessControllerInterface.sol\";\n\n/**\n * @title SimpleWriteAccessController\n * @notice Gives access to accounts explicitly added to an access list by the\n * controller's owner.\n * @dev does not make any special permissions for externally, see\n * SimpleReadAccessController for that.\n */\ncontract SimpleWriteAccessController is AccessControllerInterface, Owned {\n\n  bool public checkEnabled;\n  mapping(address => bool) internal accessList;\n\n  event AddedAccess(address user);\n  event RemovedAccess(address user);\n  event CheckAccessEnabled();\n  event CheckAccessDisabled();\n\n  constructor()\n    public\n  {\n    checkEnabled = true;\n  }\n\n  /**\n   * @notice Returns the access of an address\n   * @param _user The address to query\n   */\n  function hasAccess(\n    address _user,\n    bytes memory\n  )\n    public\n    view\n    virtual\n    override\n    returns (bool)\n  {\n    return accessList[_user] || !checkEnabled;\n  }\n\n  /**\n   * @notice Adds an address to the access list\n   * @param _user The address to add\n   */\n  function addAccess(address _user)\n    external\n    onlyOwner()\n  {\n    if (!accessList[_user]) {\n      accessList[_user] = true;\n\n      emit AddedAccess(_user);\n    }\n  }\n\n  /**\n   * @notice Removes an address from the access list\n   * @param _user The address to remove\n   */\n  function removeAccess(address _user)\n    external\n    onlyOwner()\n  {\n    if (accessList[_user]) {\n      accessList[_user] = false;\n\n      emit RemovedAccess(_user);\n    }\n  }\n\n  /**\n   * @notice makes the access check enforced\n   */\n  function enableAccessCheck()\n    external\n    onlyOwner()\n  {\n    if (!checkEnabled) {\n      checkEnabled = true;\n\n      emit CheckAccessEnabled();\n    }\n  }\n\n  /**\n   * @notice makes the access check unenforced\n   */\n  function disableAccessCheck()\n    external\n    onlyOwner()\n  {\n    if (checkEnabled) {\n      checkEnabled = false;\n\n      emit CheckAccessDisabled();\n    }\n  }\n\n  /**\n   * @dev reverts if the caller does not have access\n   */\n  modifier checkAccess() {\n    require(hasAccess(msg.sender, msg.data), \"No access\");\n    _;\n  }\n}\n",
  "sourcePath": "@chainlink/contracts/src/v0.6/SimpleWriteAccessController.sol",
  "compiler": {
    "name": "solc",
    "version": "0.6.6+commit.6c089d02.Emscripten.clang"
  },
  "schemaVersion": "3.3.2",
  "updatedAt": "2021-02-11T20:51:04.551Z",
  "devdoc": {
    "details": "does not make any special permissions for externally, see SimpleReadAccessController for that.",
    "methods": {
      "acceptOwnership()": {
        "details": "Allows an ownership transfer to be completed by the recipient."
      },
      "addAccess(address)": {
        "params": {
          "_user": "The address to add"
        }
      },
      "hasAccess(address,bytes)": {
        "params": {
          "_user": "The address to query"
        }
      },
      "removeAccess(address)": {
        "params": {
          "_user": "The address to remove"
        }
      },
      "transferOwnership(address)": {
        "details": "Allows an owner to begin transferring ownership to a new address, pending."
      }
    },
    "title": "SimpleWriteAccessController"
  },
  "userdoc": {
    "methods": {
      "addAccess(address)": {
        "notice": "Adds an address to the access list"
      },
      "disableAccessCheck()": {
        "notice": "makes the access check unenforced"
      },
      "enableAccessCheck()": {
        "notice": "makes the access check enforced"
      },
      "hasAccess(address,bytes)": {
        "notice": "Returns the access of an address"
      },
      "removeAccess(address)": {
        "notice": "Removes an address from the access list"
      }
    },
    "notice": "Gives access to accounts explicitly added to an access list by the controller's owner."
  }
}